:100000000C9462000C948A000C948A000C948A0070
:100010000C948A000C948A000C948A000C948A0038
:100020000C948A000C948A000C948A000C948A0028
:100030000C948A000C948A000C948A000C948A0018
:100040000C9429030C948A000C94F7020C94D102AE
:100050000C948A000C948A000C948A000C948A00F8
:100060000C948A000C948A000000000024002700F1
:100070002A0000000000250028002B0000000008D6
:10008000000201000003040700000000000000005F
:1000900000000000230026002900040404040404D6
:1000A0000404020202020202030303030303010227
:1000B00004081020408001020408102001020408F6
:1000C0001020DF0511241FBECFEFD8E0DEBFCDBF6B
:1000D00011E0A0E0B1E0E4E9FEE002C005900D927D
:1000E000A231B107D9F721E0A2E1B1E001C01D9230
:1000F000AC3BB207E1F710E0C2E6D0E004C02197C4
:10010000FE010E944207C136D107C9F70E94B80319
:100110000C9448070C940000AF92BF92CF92DF92EC
:10012000EF92FF920F931F93CF93DF936C017B01AC
:100130008B01040F151FEB015E01AE18BF08C0173D
:10014000D10759F06991D601ED91FC910190F081B0
:10015000E02DC6010995892B79F7C501DF91CF9173
:100160001F910F91FF90EF90DF90CF90BF90AF90D5
:100170000895FC01538D448D252F30E0842F90E0AD
:10018000821B930B541710F0CF9608950197089592
:10019000FC01918D828D981761F0A28DAE0FBF2F5B
:1001A000B11D5D968C91928D9F5F9F73928F90E0B1
:1001B00008958FEF9FEF0895FC01918D828D981720
:1001C00031F0828DE80FF11D858D90E008958FEF5D
:1001D0009FEF0895FC01918D228D892F90E0805C26
:1001E0009F4F821B91098F73992708958BE191E0AE
:1001F0000E94EA0021E0892B09F420E0822F089573
:1002000080E090E0892B29F00E94F60081110C9487
:1002100000000895FC01A48DA80FB92FB11DA35AA9
:10022000BF4F2C91848D90E001968F739927848F16
:10023000A689B7892C93A089B1898C918370806439
:100240008C93938D848D981306C00288F389E02DDA
:1002500080818F7D80830895EF92FF920F931F938B
:10026000CF93DF93EC0181E0888F9B8D8C8D981369
:100270001AC0E889F989808185FF15C09FB7F89475
:10028000EE89FF896083E889F989808183708064C1
:1002900080839FBF81E090E0DF91CF911F910F910C
:1002A000FF90EF900895F62E0B8D10E00F5F1F4F1B
:1002B0000F731127E02E8C8D8E110CC00FB607FC2A
:1002C000FACFE889F989808185FFF5CFCE010E94B8
:1002D0000A01F1CFEB8DEC0FFD2FF11DE35AFF4F1B
:1002E000F0829FB7F8940B8FEA89FB898081806246
:1002F000CFCFCF93DF93EC01888D8823B9F0AA8903
:10030000BB89E889F9898C9185FD03C0808186FDD0
:100310000DC00FB607FCF7CF8C9185FFF2CF80811F
:1003200085FFEDCFCE010E940A01E9CFDF91CF9189
:100330000895833081F028F4813099F08230A9F05B
:1003400008958730A9F08830C9F08430B1F48091E5
:1003500080008F7D03C0809180008F778093800024
:10036000089584B58F7784BD089584B58F7DFBCFC4
:100370008091B0008F778093B00008958091B00095
:100380008F7DF9CFCF93DF93282F30E0F901E45828
:10039000FF4F8491F901E255FF4FD491F901E656E0
:1003A000FF4FC491CC23A1F081110E949901EC2F41
:1003B000F0E0EE0FFF1FE057FF4FA591B491EC91D5
:1003C000ED2381E090E009F480E0DF91CF91089582
:1003D00080E090E0FACF1F93CF93DF93282F30E097
:1003E000F901E458FF4F8491F901E255FF4FD49190
:1003F000F901E656FF4FC491CC23A9F0162F8111C5
:100400000E949901EC2FF0E0EE0FFF1FEE58FF4F16
:10041000A591B4918FB7F894EC91111108C0D095C3
:10042000DE23DC938FBFDF91CF911F910895DE2BE8
:10043000F8CFCF93DF9390E0FC01E255FF4F24917A
:1004400086569F4FFC0184918823D1F090E0880F5D
:10045000991FFC01E859FF4FA591B491FC01EE589A
:10046000FF4FC591D49161110EC09FB7F8948C9144
:10047000E22FE0958E238C932881E223E8839FBFAF
:10048000DF91CF9108958FB7F894EC91E22BEC9324
:100490008FBFF6CF3FB7F894809117019091180164
:1004A000A0911901B0911A0126B5A89B05C02F3F54
:1004B00019F00196A11DB11D3FBFBA2FA92F982F8A
:1004C0008827BC01CD01620F711D811D911D42E085
:1004D000660F771F881F991F4A95D1F708958F924D
:1004E0009F92AF92BF92CF92DF92EF92FF924B0119
:1004F0005C010E944A026B017C010E944A026C1955
:100500007D098E099F09683E734081059105A8F316
:1005100021E0821A9108A108B10888EEC80E83E094
:10052000D81EE11CF11C81149104A104B10429F727
:10053000FF90EF90DF90CF90BF90AF909F908F9003
:10054000089560E088E00E94EB0160E087E00E948F
:10055000EB0160E086E00E94EB0160E085E00C9436
:10056000EB0160E088E00E94EB0161E087E00E941F
:10057000EB0161E086E00E94EB0160E085E00C9415
:10058000EB0160E088E00E94EB0161E087E00E94FF
:10059000EB0160E086E00E94EB0161E085E00C94F5
:1005A000EB011F920F920FB60F9211242F933F93DE
:1005B0004F935F936F937F938F939F93AF93BF936B
:1005C000EF93FF938BE191E00E940A01FF91EF917D
:1005D000BF91AF919F918F917F916F915F914F915B
:1005E0003F912F910F900FBE0F901F9018951F9263
:1005F0000F920FB60F9211242F938F939F93EF9327
:10060000FF93E0912B01F0912C018081E091310169
:10061000F091320182FD1BC09081809134018F5F87
:100620008F7320913501821741F0E0913401F0E0A1
:10063000E55EFE4F958F80933401FF91EF919F917E
:100640008F912F910F900FBE0F901F901895808162
:10065000F4CF1F920F920FB60F9211242F933F9356
:100660008F939F93AF93BF93809113019091140147
:10067000A0911501B09116013091120123E0230FD2
:100680002D3758F50196A11DB11D209312018093BD
:10069000130190931401A0931501B093160180915A
:1006A000170190911801A0911901B0911A010196BA
:1006B000A11DB11D8093170190931801A0931901FA
:1006C000B0931A01BF91AF919F918F913F912F915C
:1006D0000F900FBE0F901F90189526E8230F0296DB
:1006E000A11DB11DD2CFCF92DF92EF92FF920F9357
:1006F0001F93E82FF92F05C0015011092109310975
:1007000061F1908196239417B9F305C00150110946
:100710002109310911F1908196239413F7CFC12C4F
:10072000D12CE12CF12C0AC08FEFC81AD80AE80AA4
:10073000F80A0C151D052E053F0579F080818623EA
:10074000841791F36C2D7D2D8E2D9F2D1F910F9170
:10075000FF90EF90DF90CF90089560E070E080E030
:1007600090E01F910F91FF90EF90DF90CF90089550
:10077000CF93DF9300D000D000D0CDB7DEB7789410
:1007800084B5826084BD84B5816084BD85B5826096
:1007900085BD85B5816085BD80916E008160809347
:1007A0006E001092810080918100826080938100B0
:1007B00080918100816080938100809180008160C0
:1007C000809380008091B10084608093B10080911B
:1007D000B00081608093B00080917A008460809343
:1007E0007A0080917A00826080937A0080917A000A
:1007F000816080937A0080917A00806880937A008B
:100800001092C10060E081E10E94190260E082E183
:100810000E94190260E083E10E94190260E081E019
:100820000E94190260E08DE00E94190260E08EE0F3
:100830000E94190260E08FE00E94190260E080E1EE
:100840000E94190261E088E00E94190261E087E0DD
:100850000E94190261E086E00E94190261E085E0D1
:100860000E94190261E08CE00E94190261E08BE0B5
:100870000E94190261E08AE00E94190261E089E0A9
:100880000E94190261E080E00E94190260E082E0AB
:100890000E941902E0912B01F0912C0182E08083EB
:1008A000E0912701F09128011082E0912901F09157
:1008B0002A018FEC808310923301E0912F01F09197
:1008C000300186E08083E0912D01F0912E0180813E
:1008D00080618083E0912D01F0912E0180818860FC
:1008E0008083E0912D01F0912E01808180688083CA
:1008F000E0912D01F0912E0180818F7D808381E137
:100900000E94C2019A83898382E10E94C2014C0144
:1009100083E10E94C2015C0181E00E94C2017C016E
:100920008DE00E94C2019C838B838EE00E94C201F5
:100930001C018FE00E94C2016C0180E10E94C20193
:100940009E838D8360E080E00E94EB0183E090E075
:100950000197F1F761E080E00E94EB0183E290E013
:100960000197F1F760E080E00E94EB01E0EBF0E03E
:100970006491ECE9F0E08491E82FF0E0EE0FFF1FC6
:10098000E057FF4F8591949100E412E42FE030E0AE
:10099000462F0E947303611571058105910529F0A9
:1009A0006F5F7F4F8F4F9F4F9F700E94B60623E36C
:1009B00033E349E652E40E940C060E947E062B01B6
:1009C0003C014092B8015092B9016092BA01709214
:1009D000BB016AE070E080E090E00E946F02F3E10A
:1009E0004F165104610471040CF469C089819A8125
:1009F0000197B9F4892819F5AB2809F5EF28F9F41E
:100A000061E088E00E94EB0160E087E00E94EB017A
:100A100061E086E00E94EB0160E085E00E94EB016E
:100A20000EC0E981FA81EF2B51F4F1E08F169104A9
:100A300011F5AB2821F4EF2811F40E94C1028B813B
:100A40009C81019709F063C0232841F4CD2831F43B
:100A5000ED81FE8161E0EF2B09F4ACC0E0E0F0E055
:100A6000EF2B09F44CCF0E94F600882309F447CFFE
:100A70000E94000044CF892811F781E0A816B10434
:100A800029F4EF28E1F60E94B102D9CFAB28B9F6DC
:100A900091E0E916F10471F461E088E00E94EB0155
:100AA00060E087E00E94EB0160E086E00E94EB01DD
:100AB00061E0B3CFEF2819F60E94A102C0CFE2E1B6
:100AC0004E1651046104710409F4B9CF0E94A102C9
:100AD00064EF71E080E090E00E946F020E94C1022A
:100AE00064EF71E080E090E00E946F020E94A1023A
:100AF00064E670E080E090E00E946F020E94B10224
:100B000064EF71E080E090E00E946F0298CF8B81EB
:100B10009C81892B09F0A2CF91E02916310491F430
:100B2000CD2809F09BCFED81FE81EF2B09F096CF08
:100B300060E08CE00E94EB0161E08BE00E94EB0141
:100B400060E015C0232809F089CFF1E0CF16D10469
:100B500099F48D819E81892B09F080CF60E08CE033
:100B60000E94EB0160E08BE00E94EB0161E08AE013
:100B70000E94EB0160E014C0CD2809F06FCFED8139
:100B8000FE81319789F460E08CE00E94EB0160E027
:100B90008BE00E94EB0160E08AE00E94EB0161E0E3
:100BA00089E00E94EB015ACF8D819E81892B09F04B
:100BB00055CF60E08CE00E94EB0160E0BECFEBE13E
:100BC000F1E01382128288EE93E0A0E0B0E084832B
:100BD0009583A683B78384E091E09183808385EC3D
:100BE00090E09587848784EC90E09787868780ECF7
:100BF00090E0918B808B81EC90E0938B828B82ECE8
:100C000090E0958B848B86EC90E0978B868B118E91
:100C1000128E138E148E08950E9420060C940807DD
:100C20000E94010758F00E94FA0640F029F45F3F45
:100C300029F00C94F10651110C943C070C94F70622
:100C40000E94190768F39923B1F3552391F3951B7B
:100C5000550BBB27AA2762177307840738F09F5FDD
:100C60005F4F220F331F441FAA1FA9F335D00E2E4A
:100C70003AF0E0E832D091505040E695001CCAF7B7
:100C80002BD0FE2F29D0660F771F881FBB1F26177A
:100C900037074807AB07B0E809F0BB0B802DBF0151
:100CA000FF2793585F4F3AF09E3F510578F00C9420
:100CB000F1060C943C075F3FE4F3983ED4F386952D
:100CC00077956795B795F7959F5FC9F7880F911D41
:100CD0009695879597F90895E1E0660F771F881F2D
:100CE000BB1F621773078407BA0720F0621B730BE0
:100CF000840BBA0BEE1F88F7E09508950E948506D5
:100D00006894B1110C943C0708950E94210788F063
:100D10009F5798F0B92F9927B751B0F0E1F0660FBF
:100D2000771F881F991F1AF0BA95C9F714C0B13000
:100D300091F00E943B07B1E008950C943B07672FA8
:100D4000782F8827B85F39F0B93FCCF3869577952F
:100D50006795B395D9F73EF4909580957095619518
:100D60007F4F8F4F9F4F0895E89409C097FB3EF443
:100D700090958095709561957F4F8F4F9F4F9923E8
:100D8000A9F0F92F96E9BB279395F6958795779566
:100D90006795B795F111F8CFFAF4BB0F11F460FF26
:100DA0001BC06F5F7F4F8F4F9F4F16C0882311F07E
:100DB00096E911C0772321F09EE8872F762F05C092
:100DC000662371F096E8862F70E060E02AF09A952D
:100DD000660F771F881FDAF7880F9695879597F922
:100DE000089597F99F6780E870E060E008959FEFAD
:100DF00080EC089500240A941616170618060906B2
:100E0000089500240A941216130614060506089580
:100E1000092E0394000C11F4882352F0BB0F40F408
:100E2000BF2B11F460FF04C06F5F7F4F8F4F9F4F48
:100E3000089557FD9058440F551F59F05F3F71F0CA
:100E40004795880F97FB991F61F09F3F79F0879531
:100E50000895121613061406551FF2CF4695F1DFBA
:100E600008C0161617061806991FF1CF869571054A
:100E7000610508940895E894BB2766277727CB017E
:100E800097F90895EE0FFF1F0590F491E02D099456
:040E9000F894FFCF04
:100E9400000000002C018C00B9007901EA00C800B0
:020EA400DC0070
:107E0000112484B714BE81FFF0D085E080938100F7
:107E100082E08093C00088E18093C10086E0809377
:107E2000C20080E18093C4008EE0C9D0259A86E02C
:107E300020E33CEF91E0309385002093840096BBD3
:107E4000B09BFECF1D9AA8958150A9F7CC24DD24C4
:107E500088248394B5E0AB2EA1E19A2EF3E0BF2EE7
:107E6000A2D0813461F49FD0082FAFD0023811F036
:107E7000013811F484E001C083E08DD089C08234E0
:107E800011F484E103C0853419F485E0A6D080C0E4
:107E9000853579F488D0E82EFF2485D0082F10E0AE
:107EA000102F00270E291F29000F111F8ED06801E7
:107EB0006FC0863521F484E090D080E0DECF843638
:107EC00009F040C070D06FD0082F6DD080E0C81688
:107ED00080E7D80618F4F601B7BEE895C0E0D1E017
:107EE00062D089930C17E1F7F0E0CF16F0E7DF06D8
:107EF00018F0F601B7BEE89568D007B600FCFDCFD4
:107F0000A601A0E0B1E02C9130E011968C91119780
:107F100090E0982F8827822B932B1296FA010C0160
:107F200087BEE89511244E5F5F4FF1E0A038BF0790
:107F300051F7F601A7BEE89507B600FCFDCF97BE46
:107F4000E89526C08437B1F42ED02DD0F82E2BD052
:107F50003CD0F601EF2C8F010F5F1F4F84911BD097
:107F6000EA94F801C1F70894C11CD11CFA94CF0C13
:107F7000D11C0EC0853739F428D08EE10CD085E9AC
:107F80000AD08FE07ACF813511F488E018D01DD067
:107F900080E101D065CF982F8091C00085FFFCCF94
:107FA0009093C60008958091C00087FFFCCF809118
:107FB000C00084FD01C0A8958091C6000895E0E648
:107FC000F0E098E1908380830895EDDF803219F02E
:107FD00088E0F5DFFFCF84E1DECF1F93182FE3DFCA
:107FE0001150E9F7F2DF1F91089580E0E8DFEE27F6
:047FF000FF270994CA
:027FFE00040479
:0400000300007E007B
:00000001FF
