:100000000C9461000C9473000C9473000C947300B6
:100010000C9473000C9473000C9473000C94730094
:100020000C9473000C9473000C9473000C94730084
:100030000C9473000C9473000C9473000C94730074
:100040000C9426010C9473000C9473000C947300B0
:100050000C9473000C9473000C9473000C94730054
:100060000C9473000C94730000000000240027001F
:100070002A0000000000250028002B0000000000DE
:1000800023002600290004040404040404040202DA
:100090000202020203030303030301020408102007
:1000A0004080010204081020010204081020000012
:1000B0000008000201000003040700000000000027
:1000C000000011241FBECFEFD8E0DEBFCDBF21E07E
:1000D000A0E0B1E001C01D92A930B207E1F70E9493
:1000E00070010C94C3020C940000833081F028F45A
:1000F000813099F08230A9F008958730A9F08830D6
:10010000C9F08430B1F4809180008F7D03C080916C
:1001100080008F7780938000089584B58F7784BDA9
:10012000089584B58F7DFBCF8091B0008F77809349
:10013000B00008958091B0008F7DF9CFCF93DF9309
:10014000282F30E0F901E255FF4F8491F901E6567E
:10015000FF4FD491F901EA57FF4FC491CC23A1F08E
:1001600081110E947500EC2FF0E0EE0FFF1FE458A4
:10017000FF4FA591B491EC91ED2381E090E009F45B
:1001800080E0DF91CF91089580E090E0FACF1F9357
:10019000CF93DF93282F30E0F901E255FF4F849190
:1001A000F901E656FF4FD491F901EA57FF4FC49188
:1001B000CC23A9F0162F81110E947500EC2FF0E0DE
:1001C000EE0FFF1FEE58FF4FA591B4918FB7F89433
:1001D000EC91111108C0D095DE23DC938FBFDF9125
:1001E000CF911F910895DE2BF8CFCF93DF9390E04E
:1001F000FC01E656FF4F24918A579F4FFC018491E2
:100200008823D1F090E0880F991FFC01E859FF4F37
:10021000A591B491FC01EE58FF4FC591D4916111A5
:100220000EC09FB7F8948C91E22FE0958E238C93AB
:100230002881E223E8839FBFDF91CF9108958FB794
:10024000F894EC91E22BEC938FBFF6CF1F920F92B4
:100250000FB60F9211242F933F938F939F93AF93D9
:10026000BF938091050190910601A0910701B09183
:1002700008013091040123E0230F2D3758F5019632
:10028000A11DB11D209304018093050190930601E7
:10029000A0930701B09308018091000190910101A2
:1002A000A0910201B09103010196A11DB11D80939F
:1002B000000190930101A0930201B0930301BF914B
:1002C000AF919F918F913F912F910F900FBE0F9003
:1002D0001F90189526E8230F0296A11DB11DD2CFBD
:1002E000789484B5826084BD84B5816084BD85B511
:1002F000826085BD85B5816085BD80916E0081601D
:1003000080936E00109281008091810082608093C2
:1003100081008091810081608093810080918000C4
:100320008160809380008091B10084608093B100EF
:100330008091B00081608093B00080917A008460E9
:1003400080937A0080917A00826080937A00809115
:100350007A00816080937A0080917A00806880932F
:100360007A001092C10060E083E10E94F50060E035
:1003700084E10E94F50060E085E10E94F50060E004
:1003800086E10E94F50060E087E10E94F50060E0F0
:1003900088E10E94F50060E089E10E94F50060E0DC
:1003A0008AE10E94F50061E088E00E94F50061E0CA
:1003B00089E00E94F50061E08AE00E94F50061E0BA
:1003C0008BE00E94F50061E08CE00E94F50061E0A6
:1003D0008DE00E94F50061E08EE00E94F50061E092
:1003E0008FE00E94F50080E0482E80E0582E83E1E7
:1003F0000E949E004C0184E10E949E005C0185E108
:100400000E949E007C0186E10E949E00EC0187E133
:100410000E949E003C0188E10E949E006C0189E1DF
:100420000E949E008C018AE10E949E0021E08216BB
:10043000910401F5AB2831F4EF2821F461E0CD2BD4
:1004400009F44CC021E06216710409F059C0CD28AE
:1004500009F061C0012B09F05EC0892B09F05BC077
:1004600060E08CE00E94C70061E08DE00E94C70060
:1004700060E07CC0892831F721E0A216B104A9F41C
:10048000EF2801F7CD2BF1F660E088E00E94C7006D
:1004900061E089E00E94C70060E08AE00E94C70036
:1004A00061E08BE00E94C70036C0AB2859F621E01E
:1004B000E216F10461F461E0CD2B21F688E00E94A0
:1004C000C70060E089E00E94C70060E00FC0EF282D
:1004D00009F0B8CFC130D10571F460E088E00E9426
:1004E000C70060E089E00E94C70061E08AE00E94E6
:1004F000C70060E0D6CFCD2B09F0A4CF60E0DECFFF
:10050000672849F421E0C216D10461F4012B19F4E3
:1005100061E0892B99F14114510409F468CF0E94DC
:10052000000065CFCD28B9F70130110589F4892B7A
:1005300091F760E08CE00E94C70060E08DE00E94CF
:10054000C70060E08EE00E94C70061E08FE0AACFA4
:10055000012B09F78130910571F460E08CE00E9475
:10056000C70060E08DE00E94C70061E08EE00E945D
:10057000C70060E0EBCF892B71F660E08CE00E9451
:0A058000C70060E072CFF894FFCFCF
:00000001FF
